:020000040800F2
:1000000000000420011F0008211A0008231A00081C
:10001000251A0008271A0008291A00080000000005
:100020000000000000000000000000005165000812
:100030002B1A000800000000F16500085566000852
:10004000511F0008511F0008511F0008511F0008D0
:10005000511F0008511F0008511F0008511F0008C0
:10006000511F0008511F0008511F0008511F0008B0
:10007000511F0008511F0008511F0008511F0008A0
:10008000511F0008511F0008511F0008511F000890
:10009000511F0008511F0008511F0008511F000880
:1000A000511F0008511F0008511F0008511F000870
:1000B000511F0008511F0008511F0008511F000860
:1000C000511F0008511F0008511F0008511F000850
:1000D000511F0008511F0008511F0008511F000840
:1000E000511F0008511F0008511F0008511F000830
:1000F000511F0008511F0008511F0008511F000820
:10010000511F0008511F0008511F0008511F00080F
:100110002D1A0008511F0008511F0008391A000845
:10012000511F0008511F0008511F0008511F0008EF
:10013000511F000800000000000000000000000047
:10014000000000000000000000000000511F000837
:10015000511F0008511F0008511F0008511F0008BF
:10016000511F0008511F0008511F0008511F0008AF
:10017000511F0008511F000800000000511F000817
:10018000511F0008511F0008511F0008511F00088F
:10019000511F0008511F000800000000511F0008F7
:1001A000000000000000000000000000511F0008D7
:1001B000511F0008511F000800000000000000004F
:1001C000000000000000000000000000000000002F
:1001D000000000000000000000000000511F0008A7
:1001E00010B5054C237833B9044B13B10448AFF371
:1001F00000800123237010BD1000002000000000CB
:10020000486A000808B5034B1BB103490348AFF324
:10021000008008BD0000000014000020486A0008AB
:1002200081F0004102E000BF83F0004330B54FEAA7
:1002300041044FEA430594EA050F08BF90EA020F14
:100240001FBF54EA000C55EA020C7FEA645C7FEAA7
:10025000655C00F0E2804FEA5454D4EB5555B8BFCA
:100260006D420CDD2C4480EA020281EA030382EA3B
:10027000000083EA010180EA020281EA0303362DCD
:1002800088BF30BD11F0004F4FEA01314FF4801CA0
:100290004CEA113102D0404261EB410113F0004FB2
:1002A0004FEA03334CEA133302D0524263EB430369
:1002B00094EA050F00F0A780A4F10104D5F1200E07
:1002C0000DDB02FA0EFC22FA05F2801841F1000162
:1002D00003FA0EF2801843FA05F359410EE0A5F136
:1002E00020050EF1200E012A03FA0EFC28BF4CF067
:1002F000020C43FA05F3C01851EBE37101F000451D
:1003000007D54FF0000EDCF1000C7EEB00006EEB29
:100310000101B1F5801F1BD3B1F5001F0CD34908B3
:100320005FEA30004FEA3C0C04F101044FEA44520A
:1003300012F5800F80F09A80BCF1004F08BF5FEA91
:10034000500C50F1000041EB045141EA050130BD71
:100350005FEA4C0C404141EB010111F4801FA4F114
:100360000104E9D191F0000F04BF01460020B1FA69
:1003700081F308BF2033A3F10B03B3F120020CDAA1
:100380000C3208DD02F1140CC2F10C0201FA0CF07F
:1003900021FA02F10CE002F11402D8BFC2F1200CE4
:1003A00001FA02F120FA0CFCDCBF41EA0C0190409A
:1003B000E41AA2BF01EB0451294330BD6FEA0404E3
:1003C0001F3C1CDA0C340EDC04F11404C4F12002CE
:1003D00020FA04F001FA02F340EA030021FA04F3E0
:1003E00045EA030130BDC4F10C04C4F1200220FA37
:1003F00002F001FA04F340EA0300294630BD21FA75
:1004000004F0294630BD94F0000F83F4801306BF3A
:1004100081F480110134013D4EE77FEA645C18BF2E
:100420007FEA655C29D094EA050F08BF90EA020FC5
:1004300005D054EA000C04BF1946104630BD91EABD
:10044000030F1EBF0021002030BD5FEA545C05D1C0
:100450004000494128BF41F0004130BD14F58004FF
:100460003CBF01F5801130BD01F0004545F0FE4173
:1004700041F470014FF0000030BD7FEA645C1ABFA8
:10048000194610467FEA655C1CBF0B46024650EADF
:10049000013406BF52EA033591EA030F41F400210B
:1004A00030BD00BF90F0000F04BF0021704730B591
:1004B0004FF4806404F132044FF000054FF0000166
:1004C00050E700BF90F0000F04BF0021704730B527
:1004D0004FF4806404F1320410F0004548BF4042FC
:1004E0004FF000013EE700BF42004FEAE2014FEA51
:1004F00031014FEA02701FBF12F07F4393F07F4F2C
:1005000081F06051704732F07F4208BF704793F02E
:100510007F4F04BF41F40021704730B54FF4607441
:1005200001F0004521F000411CE700BF50EA010244
:1005300008BF704730B54FF000050AE050EA0102ED
:1005400008BF704730B511F0004502D5404261EB5D
:1005500041014FF4806404F132045FEA915C3FF49E
:10056000D8AE4FF003025FEADC0C18BF03325FEA3B
:10057000DC0C18BF033202EBDC02C2F1200300FAEC
:1005800003FC20FA02F001FA03FE40EA0E0021FA11
:1005900002F11444BDE600BF70B54FF0FF0C4CF4FF
:1005A000E06C1CEA11541DBF1CEA135594EA0C0FB1
:1005B00095EA0C0F00F0DEF82C4481EA030621EAEC
:1005C0004C5123EA4C5350EA013518BF52EA033527
:1005D00041F4801143F4801338D0A0FB02CE4FF0D9
:1005E0000005E1FB02E506F00042E0FB03E54FF009
:1005F0000006E1FB03569CF0000F18BF4EF0010E01
:10060000A4F1FF04B6F5007F64F5407404D25FEAFC
:100610004E0E6D4146EB060642EAC62141EA5551AF
:100620004FEAC52040EA5E504FEACE2EB4F1FD0CF1
:1006300088BFBCF5E06F1ED8BEF1004F08BF5FEA6F
:10064000500E50F1000041EB045170BD06F0004621
:1006500046EA010140EA020081EA0301B4EB5C04CE
:10066000C2BFD4EB0C0541EA045170BD41F48011C6
:100670004FF0000E013C00F3AB8014F1360FDEBFEB
:10068000002001F0004170BDC4F10004203C35DAC7
:100690000C341BDC04F11404C4F1200500FA05F34A
:1006A00020FA04F001FA05F240EA020001F00042EB
:1006B00021F0004110EBD37021FA04F642EB060161
:1006C0005EEA430E08BF20EAD37070BDC4F10C048B
:1006D000C4F1200500FA04F320FA05F001FA04F24F
:1006E00040EA020001F0004110EBD37041F100013B
:1006F0005EEA430E08BF20EAD37070BDC4F1200546
:1007000000FA05F24EEA020E20FA04F301FA05F2AD
:1007100043EA020321FA04F001F0004121FA04F255
:1007200020EA020000EBD3705EEA430E08BF20EA25
:10073000D37070BD94F0000F0FD101F0004640005F
:1007400041EB010111F4801F08BF013CF7D041EAE1
:10075000060195F0000F18BF704703F000465200E5
:1007600043EB030313F4801F08BF013DF7D043EAB6
:100770000603704794EA0C0F0CEA135518BF95EA6C
:100780000C0F0CD050EA410618BF52EA4306D1D1F3
:1007900081EA030101F000414FF0000070BD50EA12
:1007A000410606BF1046194652EA430619D094EA9C
:1007B0000C0F02D150EA013613D195EA0C0F05D186
:1007C00052EA03361CBF104619460AD181EA0301DA
:1007D00001F0004141F0FE4141F470014FF0000092
:1007E00070BD41F0FE4141F4780170BD70B54FF02D
:1007F000FF0C4CF4E06C1CEA11541DBF1CEA1355AD
:1008000094EA0C0F95EA0C0F00F0A7F8A4EB05048E
:1008100081EA030E52EA03354FEA013100F0888085
:100820004FEA03334FF0805545EA131343EA12634E
:100830004FEA022245EA111545EA10654FEA002603
:100840000EF000419D4208BF964244F1FD0404F5BC
:10085000407402D25B084FEA3202B61A65EB030518
:100860005B084FEA32024FF480104FF4002CB6EBD5
:10087000020E75EB030E22BFB61A754640EA0C0055
:100880005B084FEA3202B6EB020E75EB030E22BF95
:10089000B61A754640EA5C005B084FEA3202B6EBD6
:1008A000020E75EB030E22BFB61A754640EA9C0095
:1008B0005B084FEA3202B6EB020E75EB030E22BF65
:1008C000B61A754640EADC0055EA060E18D04FEA23
:1008D000051545EA16754FEA06164FEAC30343EAC3
:1008E00052734FEAC2025FEA1C1CC0D111F4801F90
:1008F0000BD141EA00014FF000004FF0004CB6E789
:1009000011F4801F04BF01430020B4F1FD0C88BF27
:10091000BCF5E06F3FF6AFAEB5EB030C04BFB6EB32
:10092000020C5FEA500C50F1000041EB045170BD25
:100930000EF0004E4EEA113114EB5C04C2BFD4EB52
:100940000C0541EA045170BD41F480114FF0000ED6
:10095000013C90E645EA060E8DE60CEA135594EA52
:100960000C0F08BF95EA0C0F3FF43BAF94EA0C0F55
:100970000AD150EA01347FF434AF95EA0C0F7FF4CA
:1009800025AF104619462CE795EA0C0F06D152EA1E
:1009900003353FF4FDAE1046194622E750EA410602
:1009A00018BF52EA43067FF4C5AE50EA41047FF413
:1009B0000DAF52EA43057FF4EBAE12E74FEA410276
:1009C000B2F1E04324BFB3F5001CDCF1FE5C0DD9AD
:1009D00001F0004C4FEAC0024CEA5070B2F1004FF7
:1009E00040EB830008BF20F00100704711F0804FFA
:1009F00021D113F13872BCBF01F00040704741F4BF
:100A000080114FEA5252C2F11802C2F1200C10FAC2
:100A10000CF320FA02F018BF40F001004FEAC123A6
:100A20004FEAD32303FA0CFC40EA0C0023FA02F34A
:100A30004FEA4303CCE77FEA625307D150EA013320
:100A40001EBF4FF0FE4040F44000704701F00040F0
:100A500040F0FE4040F40000704700BF53B94AB96F
:100A6000002908BF00281CBF4FF0FF314FF0FF30B6
:100A700000F072B9ADF1080C6DE904CE00F006F893
:100A8000DDF804E0DDE9022304B070472DE9F0470A
:100A9000089E04468846002B4BD18A42154667D9EA
:100AA000B2FA82F24AB1C2F1200701FA02F320FA47
:100AB00007F7954047EA030894404FEA154E230C88
:100AC000B8FBFEF71FFA85FC0EFB178843EA0843C4
:100AD00007FB0CF1994209D9EB1807F1FF3080F0C0
:100AE0001B81994240F21881023F2B445B1AA4B249
:100AF000B3FBFEF00EFB103344EA034400FB0CFC96
:100B0000A44509D92C1900F1FF3380F00781A445D1
:100B100040F2048102382C4440EA0740A4EB0C0464
:100B200000271EB1D4400023C6E900433946BDE882
:100B3000F0878B4209D9002E00F0EB800027C6E930
:100B4000000138463946BDE8F087B3FA83F7002F35
:100B500047D18B4202D3824200F2FA80841A61EBC1
:100B6000030301209846002EE0D0C6E90048DDE7E7
:100B700002B9FFDEB2FA82F2002A40F08F80491BF0
:100B80004FEA154E1FFA85F80127B1FBFEFC230C36
:100B90000EFB1C1143EA014308FB0CF1994207D9F3
:100BA000EB180CF1FF3002D2994200F2CD8084465E
:100BB000591AA3B2B1FBFEF00EFB101443EA044431
:100BC00008FB00F8A04507D92C1900F1FF3302D229
:100BD000A04500F2B6801846A4EB080440EA0C4099
:100BE0009FE7C7F1200CBB4022FA0CFE4EEA030E31
:100BF00001FA07F420FA0CF521FA0CF34FEA1E482B
:100C00002543B3FBF8F92C0C08FB19331FFA8EFAB5
:100C100044EA034309FB0AF49C4202FA07F200FA91
:100C200007F10BD91EEB030309F1FF3080F0878039
:100C30009C4240F28480A9F1020973441B1BADB2AF
:100C4000B3FBF8F008FB103345EA034400FB0AFA53
:100C5000A24508D91EEB040400F1FF336BD2A24574
:100C600069D90238744440EA0940A0FB0289A4EB28
:100C70000A044C45C2464B4654D351D0002E69D08D
:100C8000B1EB0A0564EB030404FA0CFCFD40FC40E4
:100C90004CEA0505C6E90054002747E7C2F12003E6
:100CA00020FA03F7954001FA02F021FA03F34FEA24
:100CB000154E3843010CB3FBFEF71FFA85F80EFB07
:100CC000173341EA034107FB08F38B4204FA02F4AD
:100CD00007D9691807F1FF3C2FD28B422DD9023F6B
:100CE0002944CB1A81B2B3FBFEF00EFB103341EA6C
:100CF000034100FB08F38B4207D9691800F1FF3C60
:100D000017D28B4215D902382944C91A40EA07473D
:100D10003BE73746304609E70746E7E61846FBE675
:100D20004145ABD2B8EB020A69EB0E02013813461B
:100D3000A4E76046E9E7184695E76746D1E78146AC
:100D40007CE702382C4447E7ACF1020C2B442FE738
:100D5000384608E73746E9E6704700BF10B5074C4C
:100D600000220748214602F01DFD064B22781A7525
:100D700062785A75A2789A7510BD00BF2C000020C9
:100D8000684700208C4700207FB54FF480238DF802
:100D900001108DF80220694600228DF800000448F9
:100DA000CDE9042302F029FC07B05DF804FB00BF85
:100DB0006847002030B501EB41050923022900F501
:100DC000FA64C1EBC505B5FBF3F517D8043200F2A0
:100DD000CF7310194FF4C8722844B3FBF2F200EB42
:100DE000930010446422B3FBF2F3C01A0723B0FB54
:100DF000F3F3C3EBC303C01AC0B230BD901C4FF471
:100E0000C87364222044B4FBF3F3284400EB94003D
:100E1000B4FBF2F41844001BE8E70000134607B5E2
:100E2000C2B28DF80730C9B2D8B28DF806208DF85D
:100E30000510FFF7BFFF02A9002201F8040D0348C7
:100E400002F04BFC03B05DF804FB00BF68470020D4
:100E500010B5084C00220848214602F0CAFCA278CE
:100E60006178E078FFF7A6FF044B00B907201870FF
:100E700010BD00BF8847002068470020FD460020C5
:100E800008B5FFF76BFFFFF7E3FF024B1A78024B41
:100E9000DA7508BDFD4600208C470020044B8822EF
:100EA00000209A80034A1A6000229A60DA60704734
:100EB000CC4800204846002030B587B00023304C95
:100EC000032204AD0493AB806423A188206801F061
:100ED00013FD10B1012007B030BD06236422009538
:100EE000A1882068CDE90132022342F6064201F0D2
:100EF00049FC05460028EDD19DF810309DF8110001
:100F000000EB032007EE900AF8EEE77A17EE900A5E
:100F1000FFF7EAFA16A3D3E90023FFF73DFB16A378
:100F2000D3E90023FFF762FC0022164BFFF77CF9A0
:100F3000FFF744FD9DF81330A0609DF8140000EB0E
:100F4000032007EE900AF8EEE77A17EE900AFFF713
:100F5000CBFA00220C4BFFF71FFB07A3D3E90023BA
:100F6000FFF744FCFFF72AFDE0602846B3E700BF27
:100F70000000000000E0654000000000E0FFEF40DE
:100F8000CC480020008046400000594030B5002485
:100F9000B5B014220225214603A8CDE9094405F085
:100FA00042FD2146802214A805F03DFD214B082179
:100FB00008A81A6C42F080521A641B6C03F080532C
:100FC0000193019B1C4B1A6842F440421A601022A4
:100FD0001B68129503F440430293029B0A23089373
:100FE0000123CDE90B320D93D823CDE9101309234A
:100FF000CDE90E54139301F08DFD01F053FD0F2345
:101000004FF4A05007210594CDE903354FF48053E8
:10101000CDE9060303A801F067FF084B14A82D943F
:1010200014934FF400731E934023269302F038F874
:1010300035B030BD00380240007000402002010091
:1010400000B58FB0002400F084FF0126FFF79EFF5B
:101050001422002107A805F0E6FC964B4EF2100181
:1010600095481A6B102542F004021A631A6B02F0BD
:1010700004020092009A1A6B42F080021A631A6B03
:1010800002F080020192019A1A6B42F001021A6387
:101090001A6B02F001020292029A1A6B42F00202EB
:1010A0001A6300221B6B03F002030393039B01F0FE
:1010B00009FA00220321814801F004FA00221021DC
:1010C0007F4801F0FFF900224FF6FF717D4801F0E3
:1010D000F9F94EF2100307A97748CDE90736CDE9B3
:1010E000094401F013F9032307A97448CDE9073631
:1010F000CDE9094401F00AF907A97148CDE907567D
:10110000CDE9094401F002F94FF6FF7307A96D48D4
:10111000CDE90736CDE9094401F0F8F82A46214621
:1011200007A805F080FC684D684A4FF480332846D4
:10113000AC602C61AC6185F82040EC62EC60EE6143
:1011400085F830406E61C5E90023614BAB6200F069
:101150001DFF07A928465F4D0994CDE9074600F019
:10116000BBFF5D4B5D4928462C62C5E90013C5E90C
:101170000246C5E90444C5E9064401F0B1FA214636
:10118000284601F044FC21462846554D01F065FCF7
:1011900054484FF482734FF4007C8460446184624D
:1011A0004463C0E900534FF4E0634F4DC0E903349A
:1011B0002823C0E906C30723C0E90844C0E90B346B
:1011C00002F0E7FB1C22214606940DEB0200CDE95C
:1011D000044405F028FC4FF080432846AC60AC6125
:1011E000C5E900344FF0FF33C5E9033403F0DCF800
:1011F00004A928460494069403F0AEF9602322461D
:1012000007A9284609940B94CDE9073403F01EF989
:10121000284600F067FBDFF8F0E034484FF4E13394
:10122000334D04614462C0E900E30C23C0E9024489
:10123000C0E90534C0E9074403F013FE2146182233
:1012400007A805F0F0FB2B4B7F2228460494AC61E5
:10125000C5E90034FF23C5E90444C5E9022302F0CF
:101260007FF94FF48023324607A928460C93ADF846
:101270001C408DF81E400B9402F0BFF91E4B324605
:1012800004A92846049302F028FA00F041F900F07E
:10129000B3F800F027FCFFF701FE03F011FE174A38
:1012A0002146174803F046FE164B186003F022FE55
:1012B000FEE700BF0038024000080240001C024068
:1012C00000000240000402400447002000200140CA
:1012D0000100000F48460020FFE910A0005C00401C
:1012E000003001402448002088480020A447002006
:1012F0006847002000280040010101006C6A0008D6
:10130000611A000830490020004C00400268034B7D
:101310009A4201D100F028BE704700BF001400407F
:10132000024A162303FB0020407D70473549002008
:10133000F0B51625274C012605FB024315FB026676
:1013400003255B7D15FB036525447BB9511E1626DD
:101350006FF01507C9B211FB06F68B421CD10720AE
:101360001625904228D2B2EE040A11E015F8016C5D
:1013700086420ED82E788E420BD803EB43031621FB
:1013800001FB02321444A37800EE103ABBEEEF0AE0
:10139000F0BD013B033DD8E7C81A013307FB0365E5
:1013A000254495F82B50002DD7D005EB4505162385
:1013B00003FB00531C44E6E705FB00F3E118497DFD
:1013C00021B101EB410119440C44DCE70138C0B202
:1013D000C7E700BF3549002008B54FF4805000F042
:1013E00069F9B02203494FF48050BDE8084000F08D
:1013F00031B900BF35490020B02202494FF4805076
:1014000000F004B93549002084B038B504AC08AD0B
:1014100084E80F009DF8283016200D49224600FB75
:1014200003131446083303CCAC4243F8080C43F8CA
:10143000041C2246F5D120681860A2889A80FFF724
:10144000CBFF044B01221A70BDE8384004B070474E
:1014500035490020E5490020084A162303FB0121F5
:10146000034601F1140210B551F8044B914243F8C0
:10147000044BF9D10A881A8010BD00BF35490020FD
:1014800001284FF0100110B508BF0246044618BFEE
:101490000022034801F016F8024B1C7410BD00BF77
:1014A000000802408C47002008B5002000F002F937
:1014B000502203490020BDE8084000F0CBB800BF2F
:1014C000E048002010B5AF230D4C0E4923704FF0BB
:1014D0007A5304F10C006360012384F84A300A4B0C
:1014E000A36005F0A8FA04F12A00084905F0A3FA60
:1014F0005023A4F84C30BDE81040FFF7D5BF00BF23
:10150000E0480020906A00080000B041956A000899
:1015100010B50B4C50220020214600F077F82378BC
:10152000AF2B03D0FFF7CEFFFFF756FFB4F84C30D8
:10153000502B03D0BDE81040FFF7C4BF10BD00BF63
:10154000E048002000221021014800F0BBBF00BF8E
:101550000000024001221021014800F0B3BF00BF8B
:101560000000024007B50A2301220DF107010448DB
:1015700002F03EFC9DF8070003B05DF804FB00BFDD
:101580002448002007B502A90A23012201F8010D11
:10159000034802F053FA012003B05DF804FB00BFDA
:1015A0002448002010B5FFF7CDFF0520FFF7EAFF24
:1015B000FFF7D8FF0446FFF7CDFF204610BD08B562
:1015C000FFF7F0FF00F0010008BD000007B58DF83F
:1015D000070029B100210620FFF7F8FFFFF7BAFF47
:1015E0009DF80730AB2B03D0FFF7E9FF0028FBD1B4
:1015F000FFF7A8FF0A2301220DF10701024802F0BC
:101600001DFA03B05DF804FB2448002070B50446C1
:1016100016460D46FFF796FF00210B20FFF7D6FF79
:10162000C4F30740FFF7AEFFC4F30720FFF7AAFF9C
:10163000E0B2FFF7A7FF0020FFF7A4FF2946B2B2F0
:101640006423034802F0D4FBBDE87040FFF782BF7B
:10165000244800202DE9F743814688461646002499
:10166000134F04EB090302AD0121022045F8043DAC
:10167000FFF7ACFF0A2303222946384602F0DEF9C1
:10168000321B08EB040104F58074B2F5807F4FF043
:101690006403384628BF4FF4807292B202F0CEF94C
:1016A000FFF758FFA642DCD803B0BDE8F08300BFC7
:1016B0002448002010B5044601212020FFF786FFB2
:1016C000C4F30740FFF75EFFC4F30720FFF75AFF9C
:1016D000E0B2FFF757FFBDE81040FFF73BBF000047
:1016E0000D4B82B00F216FF001001A6C42F0805256
:1016F0001A641A6C02F080520092009A5A6C42F4FA
:1017000080425A6400225B6C03F480430193019B86
:1017100002B000F097BD00BF0038024010B588B09D
:1017200004461422002103A805F07DF92268194B14
:101730009A422DD103F58C33032403A916485A6C21
:1017400042F480725A645A6C02F480720092009AD9
:101750001A6B42F004021A631A6B02F0040201923F
:10176000019A1A6B42F001021A631B6B03F001032A
:101770000293029B0123CDE9033400F0C7FD0F2340
:1017800003A90648CDE903340023059300F0BEFD0C
:1017900008B010BD002001400008024000000240D7
:1017A0002DE9F04188B004461422002103A805F079
:1017B0003AF922681E4B9A4236D11E4C4FF012085D
:1017C00001270326236B042503A91B4843F00403C8
:1017D0002363236B03F004030093009B236B43F00C
:1017E00001032363236B079503F001030193019B1E
:1017F0004FF40073CDE90576CDE9033800F086FD9E
:101800004FF4807303A90D480795CDE90338CDE95E
:10181000057600F07BFD236C43F400032364236C06
:1018200003F400030293029B08B0BDE8F08100BFFF
:10183000005C004000380240000802400000024006
:101840000268044B9A4204D1034A136F43F40043E5
:1018500013677047002800400038024010B588B078
:1018600004461422002103A805F0DDF82268124B7B
:101870009A421FD103F58433032110485A6C42F475
:1018800080525A645A6C02F480520192019A1A6B87
:1018900042F001021A63E0221B6B03F00103029382
:1018A000029B0223CDE903230523CDE9061303A9F7
:1018B00000F02CFD08B010BD0030014000000240D7
:1018C000036882B0B3F1804F0AD103F50E331A6C6E
:1018D00042F001021A641B6C03F001030193019BA7
:1018E00002B0704710B586B004461422002101A84A
:1018F00005F099F82368B3F1804F15D103F50E3345
:1019000001A90A481A6B42F001021A634FF400421F
:101910001B6B03F001030093009B0223CDE901231D
:101920000123059300F0F2FC06B010BD0000024058
:1019300010B588B004461422002103A805F073F8FE
:101940002268174B9A4228D103F5F6330321154834
:101950001A6C42F400221A641A6C02F400220192FA
:10196000019A1A6B42F004021A634FF440621B6B37
:1019700003F004030293029B0223CDE9032308230F
:10198000CDE9061303A900F0C1FC34200022062192
:1019900000F058FC342000F087FC08B010BD00BFF8
:1019A000004C00400008024010B5014688B00022FB
:1019B000372000F047FC372000F076FC144B01A9DB
:1019C00003A81A6C134C42F020021A641B6C03F03B
:1019D00020030293029B01F045FB01F023FB0E4B19
:1019E0004000236040F2E733E3600C4BB0FBF3F0C0
:1019F00001380023606020462361A36002F0BAFC36
:101A000020B9204602F086FB08B010BD0120FBE79C
:101A100000380240E84900200014004040420F0016
:101A20007047FEE7FEE7FEE7FEE77047014802F079
:101A30009FBE00BFA4470020014802F085BB00BF45
:101A4000E8490020054BD3F8882042F47002C3F81F
:101A500088204FF000629A60704700BF00ED00E000
:101A60001D4D1E4C80B52F46FFF726FA1C4EFFF782
:101A700007FAE27D617D207D95ED028AFFF758FC33
:101A8000F6EE007A96ED017AA7EE670AB4EEC08A08
:101A9000B0EE678AF1EE10FA09D5237C3BB901203C
:101AA000FFF7EEFC4FF47A7003F09AFADCE7E27D80
:101AB000617D207DD7ED028AFFF73AFCD6ED017AF1
:101AC000A7EE880AF4EEC08AF1EE10FAEADD237C74
:101AD000012BE7D10020E3E7CC4800208C47002011
:101AE000E048002001220249024802F095BD00BFF3
:101AF00034490020A447002007B5F12302A90122A0
:101B0000044801F8013D0A2303F0C1F803B05DF871
:101B100004FB00BFA447002008B50F226423094935
:101B2000094803F00CF90623064A995C202905D1DF
:101B30000021D154054B01221A7008BD01330F2B2F
:101B4000F3D1F7E78C470020A4470020C8480020C5
:101B50001FB5134BDFED137A93ED027A642312481D
:101B600067EE277AFCEEE77A17EE902AFCEEC77A4A
:101B7000B2FBF3F103FB1122CDED017A8DF80D20BC
:101B80009DF80420B2FBF3F103FB112204A901F834
:101B9000042D022203F07BF805B05DF804FB00BFC2
:101BA000CC4800200000C842A447002030B5184CA3
:101BB00085B0FFF765F96425E27D617D207DFFF743
:101BC000B7FBDFED147A617D20EE270A207DFCEE65
:101BD000C07A17EE902AB2FBF5F305FB13228DF8BD
:101BE0000D20E27DFFF7A4FBFCEEC07A04A90A48B1
:101BF000CDED017A9DF80430B3FBF5F205FB12330D
:101C0000022201F8043D2B4603F041F805B030BD37
:101C10008C4700200000C842A447002010B58CB0BB
:101C2000C823012223480DF1020103F088F89DF832
:101C30000200431E062B0BD8FFF772FB8DF8030042
:101C400040B90A2301220DF103011A4803F01FF8DD
:101C50000CB010BD9DF8021006A8FFF7FDFB0DF1BA
:101C60001E0401AA9DF8030003210DF11B0311FBC3
:101C700000411446033303328B420DD10A23012263
:101C80000DF103010B4803F002F89DF803206423D3
:101C9000214602EB4202D8E713F8030C02F8030CCA
:101CA00013F8020C02F8020C13F8010C02F8010CF4
:101CB000E0E700BFA447002007B5002302A90122E6
:101CC000064801F8013DC82303F039F89DF80730B4
:101CD0000BB900F0F7FA03B05DF804FBA44700204D
:101CE00070B5002392B001223B488DF817300DF1FA
:101CF0001601C8230124384D03F021F8C82301221E
:101D00000DF11701344803F01AF89DF81730A3427B
:101D10002ED20124304D9DF81730A34232D2012437
:101D20002D4D9DF81710A14236D20122002306AC9A
:101D300008ADD0B2814239D2C3B90DF1330206AC3D
:101D400008AD0AAE8DF8451001330332D8B2814296
:101D500037D29DF81630029312AB13E903000CAB97
:101D60000090ADF804100FCBFFF74EFB12B070BD22
:101D700006A96423012228462144013402F0DFFF32
:101D8000E4B2C2E708A964230122284621440134B1
:101D900002F0D5FFE4B2BEE70AA964230122284677
:101DA0002144013402F0CBFFE4B2BAE7105D1728FA
:101DB00005D8505D3C2828BF01230132B9E7012333
:101DC000FBE7185D02F8030C585D02F8020C985D01
:101DD00002F8010CB8E700BFA447002013B5114C6E
:101DE0000DF1050164230122204602F0A8FF0DF148
:101DF000060164230122204602F0A1FF64230DF1B5
:101E000007010122204602F09AFF9DF807209DF865
:101E100006109DF80500FFF701F8034B01221A7028
:101E200002B010BDA4470020E549002007B5642397
:101E300001A90322064802F082FF9DF806209DF8C2
:101E400005109DF80400FEF79FFF03B05DF804FB4A
:101E5000A44700200A2301220149024802F017BFCB
:101E60009C470020A447002008B5234B1B78072B74
:101E700032D011D8032B28D007D8012B22D0022B27
:101E800027D0BDE80840FFF72DBE042B2AD0052B34
:101E9000F7D1FFF725FFF4E70A2B20D006D8082B4F
:101EA00026D0092BEDD1FFF799FFEAE7EE2B1CD0E6
:101EB000FF2B04D00F2BE4D1FFF7CCFFE1E7FFF7B6
:101EC0001BFEDEE7FFF728FEDBE70C4B0022DA748F
:101ED000D7E70A4B0122FAE7FFF73AFED1E7FFF70F
:101EE00065FECEE7FFF79AFECBE7FFF7E5FEC8E712
:101EF000FFF79CFFC5E700BF344900208C47002056
:101F0000DFF834D0002103E00C4B5B584350043120
:101F10000B480C4B42189A42F6D30B4A02E00023BE
:101F200042F8043B094B9A42F9D3FFF78BFD04F0CA
:101F30004BFDFFF785F8704700000420E86A0008B1
:101F40000000002010000020100000206C4A00203B
:101F5000FEE708B5032000F063F90020FFF724FD39
:101F6000FFF7BEFB002008BD034A044B11681B7835
:101F70000B441360704700BF284A00200400002073
:101F8000014B1868704700BF284A002038B5044646
:101F9000002800F09B80056C25B9FFF7BFFB656446
:101FA00084F83C50236CDB0600F18E80236C23F414
:101FB000885323F0020343F002032364444B5A681E
:101FC00022F440325A605A6861680A435A602368B2
:101FD00021695A6822F480725A605A6842EA0122E2
:101FE000A1685A605A6822F040725A605A680A43DF
:101FF000E1685A609A6822F400629A609A680A431B
:1020000034499A60A26A8A4252D0996821F070617C
:10201000996099680A43E16A9A609A6822F040528E
:102020009A609A680A439A609A68A16922F002024B
:102030009A609A6842EA41029A6094F82020002A45
:102040003ED05A68616A42F4006201395A605A68A7
:1020500022F460425A605A6842EA41325A600020D3
:10206000DA6AE16922F470020139DA62DA6A42EA74
:10207000015294F83010DA629A6822F400729A6081
:102080009A6842EA412261699A609A6822F4806201
:102090009A609A6842EA81229A606064236C23F015
:1020A000030343F001032364002384F83C3038BD6C
:1020B0009A6822F070629A609A6822F04052B2E701
:1020C0005A6822F40062C9E70120EDE70120EEE73B
:1020D000002301400100000F0023F7B5019390F8A1
:1020E0003C30012B74D00D6801238A68AEB2092DF3
:1020F00080F83C3006EB4604036831D9B5F1004F57
:102100002ED01E3C4FF0070CDF680CFA04FC27EAC7
:102110000C07DF603D4FBD421DD1DC6844EA02641C
:10212000DC604968062901EB810227D8053A1F24A3
:10213000596B944006FA02F221EA04015963596B83
:102140000A435A63324A934234D0002380F83C3029
:10215000184603B0F0BDDF6802FA04F43C43DFE741
:102160004FF0070C1F690CFA04FC02FA04F427EA8A
:102170000C071F611F693C431C61D2E70C294FF01B
:102180001F010BD8233A1C6B914006FA02F224EA95
:1021900001011963196B0A431A63D3E7413ADC6AF8
:1021A000914006FA02F224EA0101D962D96A0A438F
:1021B000DA62C7E7B5F1004F0CD1164A536823F431
:1021C00040035360C1E7134A536843F48003F8E7C0
:1021D0000220BEE7122DF6D00C4B9D4201D0112DEE
:1021E000B3D10C499D424A6842F400024A60ACD126
:1021F000094B0A4A1B68B3FBF2F20A2353430193CB
:10220000019B002BA1D0019B013BF8E712000010BD
:1022100000200140002301400000002040420F0048
:10222000074A0002D36800F4E06023F4E0631B0473
:102230001B0C43F0BF6343F400330343D360704788
:1022400000ED00E0164B70B5DC684FF0FF36C4F3CC
:102250000224C4F10705231D042D28BF0425062BE5
:1022600006FA05F38CBF033C0024002821EA03038F
:1022700003FA04F306FA04F422EA040443EA04032A
:102280004FEA0313DBB206DB00F1604000F561406A
:1022900080F8003370BD00F00F00024A1354F9E7D4
:1022A00000ED00E014ED00E0002808DB4209012306
:1022B00000F01F0003FA00F0014B43F822007047C2
:1022C00000E100E0BFF34F8F0549064BCA6802F4F6
:1022D000E0621343CB60BFF34F8F00BFFDE700BF49
:1022E00000ED00E00400FA0590F83530022B03D031
:1022F00080234365012070470268052380F835304C
:102300000020136823F00103136070472DE9F04F9C
:102310000B6885B0DFF8A48101930023654ADFF8DC
:10232000A0910124019D9C402540AC4240F0AC802E
:102330004C684FEA430E032624F0100C06FA0EF602
:102340000CF1FF37F643012F11D8876807EA060A18
:10235000CF6807FA0EF747EA0A078760476827EA57
:10236000050AC4F300179F4047EA0A074760C76899
:10237000BCF1020F07EA060A8F6807FA0EF747EA70
:102380000A07C76016D14FEAD30A03F0070B4FF0D4
:102390000F0C00EB8A0A4FEA8B0BDAF820700CFA6C
:1023A0000BFC27EA0C0C0F6907FA0BF747EA0C073E
:1023B000CAF8207007683E4004F0030707FA0EFED3
:1023C0004EEA06060660E6005ED5D8F8446023F0C3
:1023D000030703F0030C4FF00F0E46F4804607F19D
:1023E00080474FEA8C0CC8F8446007F59C37D8F852
:1023F000446006F480460396039E0EFA0CF6D7F866
:1024000008A02AEA060E2C4EB04244D006F580669B
:10241000B04242D006F58066B04240D006F58066F4
:10242000B0423ED006F58066B0423CD048453CD034
:1024300006F50066B0423AD006F58066B04214BF99
:102440000826072606FA0CF614F4803F46EA0E0624
:10245000BE606FEA050716680CBF3E402E4314F4B9
:10246000003F166056680CBF3E402E4314F4801F98
:10247000566096680CBF3E402E43A4029660D66814
:1024800054BF3E402E43D6600133102B7FF449AF3A
:1024900005B0BDE8F08F0026D4E70126D2E702267A
:1024A000D0E70326CEE70426CCE70526CAE70626B2
:1024B000C8E700BF003C0140000002400038024075
:1024C000001402400AB1816170470904FBE7036808
:1024D0009A69910701D500229A629A69D20703D4BA
:1024E0009A6942F001029A617047000030B5039D7D
:1024F000046845EA024260681343C1F309021A43C3
:10250000034B43EA555320EA03000243626030BDA7
:10251000FF63FF03036870B5044698690D461646CD
:1025200010F0100016D170BD691C14D0FFF728FD03
:10253000801BA84200D86DB9636C43F0200363642C
:10254000202384F841300023012084F8423084F8AD
:102550004030E8E7236899698A06E5D510222025EE
:102560002046DA61DD61FFF7B2FF2268536823F08D
:10257000FF7323F48B3323F4FF7323F001035360C1
:10258000636C43F00403636484F84150DBE770B587
:1025900004460D46164623689B699B0601D500201C
:1025A00070BD324629462046FFF7B4FF90B9FFF7C9
:1025B000E7FC801BA84201D8002DECD1636C43F0EE
:1025C00020036364202384F84130002384F84230E0
:1025D00084F840300120E3E72DE9F041069F0446EE
:1025E000884616461D462268936938EA03030CBFE5
:1025F00001230023B34201D0002015E06B1CF3D06F
:10260000FFF7BEFCC01BA84201D8002DEBD1636CC4
:10261000012043F020036364202384F84130002329
:1026200084F8423084F84030BDE8F08170B504464B
:102630000D46164623689B699B0701D5002070BD97
:10264000324629462046FFF765FFA0B96A1CF1D043
:10265000FFF796FC801BA84201D8002DEAD1636CDD
:1026600043F020036364202384F84130002384F87E
:10267000423084F840300120E1E70000F7B51F4602
:10268000164B0546099E009314460023FAB2FFF745
:102690002DFF324608992846FFF7C8FF10B10120E8
:1026A00003B0F0BD012F2B680CD1E4B20022402111
:1026B00028469C62089B0096FFF78EFF003018BFEB
:1026C0000120EDE7220A089928469A623246FFF770
:1026D000ADFF0028E3D12B68E7E700BF00200080B2
:1026E00010B5044600284AD090F8413003F0FF02AC
:1026F0001BB980F84020FFF753F8242384F84130B9
:1027000023681A6822F001021A60626822F070627F
:102710001A619A6822F400429A60D4E902210129E0
:1027200024D142F400429A605A68002042F00072BC
:1027300042F400425A60DA6822F40042DA60D4E9D6
:1027400004210A43A16942EA0122DA60D4E907219F
:102750000A431A601A6842F001021A60202360647A
:1027600084F84130206384F8420010BD42F40442F2
:1027700002299A60D8D14FF400625A60D4E7012050
:10278000F3E700002DE9F04F9B4690F8413085B00B
:102790000446202B0F460392BDF83CA0DDF8408094
:1027A00040F0A6800E9B13B1BAF1000F06D14FF492
:1027B00000736364012005B0BDE8F08F90F84030ED
:1027C000012B00F09580012580F84050FFF7D8FBE1
:1027D0001923009006462A464FF400412046FFF791
:1027E000FBFE81460028E5D122236063039A394627
:1027F00084F84130402384F842300E9B60642046C8
:1028000063625B46A4F82AA0CDE90086FFF736FF95
:1028100010B184F84090CDE7638DFF2B354B57D92D
:10282000FF2200934FF08073228539462046FFF740
:102830005DFE00964346002204212046FFF7CCFEB1
:102840000028B7D123685A6A636A1A70636A228DB6
:102850000133013A6362638D92B2013B22859BB2E0
:102860006385638D9BB2A3B19AB9009643468021DC
:102870002046FFF7B1FE00289CD1638DFF2B2FD996
:10288000FF224FF080730090228539462046FFF7E3
:102890002DFE638D9BB2002BCBD1324641462046A4
:1028A000FFF775FE002885D123682021D9615A6879
:1028B00022F0FF7222F48B3222F4FF7222F0010226
:1028C0005A6084F8411084F8400084F8420072E7AE
:1028D000628D00934FF0007392B22285D2B2A4E7CA
:1028E000628D4FF00073009092B22285D2B2CCE795
:1028F000022060E7002400802DE9FF471D460023E9
:1029000004469146039390F84130202B7DD1036813
:102910009B6913F4004378D190F84020012A74D0C9
:10292000C1F30906012246F0007880F840202422F5
:1029300048F4005880F841204364E3682268012B82
:102940000CBF434646F420535360FFF719FB07467C
:1029500023689A699B69C2F34012C3F3001302B95A
:102960006BB123689A692B46009712F0100224D1AC
:1029700020212046FFF730FEA8B101201AE06B1C91
:10298000E6D0FFF7FDFAC01BA84201D8002DDFD129
:10299000202384F84130636C43F0200363640023F8
:1029A00084F84030E9E720232268D36184F841307D
:1029B00084F8400004B0BDE8F087002220212046C2
:1029C000FFF70AFE02460028D7D1236810214FF0F6
:1029D000200AD961C3F81CA0039949450ED1596852
:1029E000204641F4804159602B4600975146FFF73D
:1029F000F3FD0028C1D12368C3F81CA0039B013359
:102A00000393039B4B4598D3C2E70220D2E790F88B
:102A10004120D2B2202A10B51DD190F84030012BB0
:102A200019D0242380F8413003681C6824F0010485
:102A30001C601C6824F480541C601C6821431960CD
:102A4000196841F001011960002380F8412080F8E5
:102A50004030184610BD0220FCE710B590F8414008
:102A6000E4B2202C1CD190F84030012B18D0242344
:102A700080F8413003681A6822F001021A601A686F
:102A800022F4706242EA012119601A6842F00102E0
:102A90001A60002380F8414080F84030184610BD8D
:102AA0000220FCE7194B37B51A6C194C42F08052E2
:102AB0001A641B6C03F080530193019B236843F459
:102AC00080332360FFF75CFA05466368DA030CD5B0
:102AD000236843F400332360FFF752FA0C4C054699
:102AE00063689B030AD5002006E0FFF749FA401B04
:102AF000B0F57A7FE9D9032003B030BDFFF740FA83
:102B0000401BB0F57A7FEBD9F5E700BF00380240F3
:102B1000007000402DE9F341044608B901203FE070
:102B20000368D80710D42368990760D4236819076D
:102B300000F1A58023685A0700F1C680A06900282B
:102B400040F0308100202BE0944B9A6802F00C0298
:102B5000042A07D09A6802F00C02082A0AD15B689E
:102B60005A0207D58D4B1B689B03DCD56368002B8D
:102B7000D9D1D3E76368894DB3F5803F13D12B6872
:102B800043F480332B60FFF7FBF9844D06462B6836
:102B90009F03C8D4FFF7F4F9801B6428F7D90320FA
:102BA00002B0BDE8F0819BB92B6823F480332B6021
:102BB0002B6823F480232B60FFF7E2F906462B688D
:102BC0009803B0D5FFF7DCF9801B6428F7D9E6E756
:102BD000B3F5A02F2B6803D143F480232B60CEE7FD
:102BE00023F480332B602B6823F48023CAE76B4BDC
:102BF0009A6812F00C0F07D09A6802F00C02082AAB
:102C000011D15B6859020ED4644B1A68920702D541
:102C1000E268012A82D11A68216922F0F80242EAA8
:102C2000C1021A6082E7E3685C4DBBB12B6843F0D8
:102C300001032B60FFF7A4F906462B689F0707D511
:102C40002B68226923F0F80343EAC2032B606DE787
:102C5000FFF796F9801B0228EFD9A0E72B6823F035
:102C600001032B60FFF78CF906462B6898077FF568
:102C70005DAFFFF785F9801B0228F6D98FE76369FE
:102C8000464D83B16B6F43F001036B67FFF778F933
:102C900006466B6F9B073FF54DAFFFF771F9801B41
:102CA0000228F6D97BE76B6F23F001036B67FFF710
:102CB00067F906466B6F9F077FF53CAFFFF760F93A
:102CC000801B0228F6D96AE7344B1A6CD00027D44F
:102CD0001A6C012642F080521A641B6C03F0805378
:102CE0000193019B2E4D2B68D9051BD5A3682B4D55
:102CF000012B27D12B6F43F001032B6741F288355D
:102D0000FFF73EF9254F80463B6F9B073FD5002ECE
:102D10003FF414AF214A136C23F0805313640DE782
:102D20000026DFE72B6843F480732B60FFF728F958
:102D300007462B68DA05D9D4FFF722F9C01B6428AF
:102D4000F7D92CE7ABB92B6F41F2883823F0010398
:102D50002B672B6F23F004032B67FFF711F907464E
:102D60002B6F9807D3D5FFF70BF9C01B4045F7D958
:102D700015E7052B2B6F03D143F004032B67B9E74D
:102D800023F001032B672B6F23F00403B5E7FFF754
:102D9000F7F8A0EB0800A842B6D900E700380240D7
:102DA00000700040384DAB6803F00C03082B41D095
:102DB0002B68022823F080732B602ED1FFF7E0F8F8
:102DC00006462B68990122D4D4E907321343626A7C
:102DD00043F0005343EA8213E26A43EA0263A26AC1
:102DE000294C5208013A43EA02436B602B6843F0D6
:102DF00080732B60FFF7C4F8054623689A013FF5FE
:102E0000A1AEFFF7BDF8401B0228F6D9C7E6FFF7D1
:102E1000B7F8801B0228D4D9C1E6FFF7B1F8044601
:102E20002B689B017FF58EAEFFF7AAF8001B0228E6
:102E3000F6D9B4E601286B683FF4B2AE03F4800221
:102E4000E1698A427FF46AAE03F03F02216A8A4256
:102E50007FF464AE47F6C072616A1A40B2EB811F1C
:102E60007FF45CAEA26A03F440315208013AB1EB40
:102E7000024F7FF453AEE26A03F07063B3EB026F6C
:102E800014BF012000208BE600380240134908B52A
:102E90008B6803F00C03042B03D0082B03D01048DD
:102EA00000E0104808BD4A684B68496802F03F02DC
:102EB00013F48003C1F388111ABF0A48002308489D
:102EC000A1FB0001FDF7CAFD044B5B68C3F301439E
:102ED00001335B00B0FBF3F0E4E700BF00380240D1
:102EE0000024F40040787D012DE9F0410D460446B0
:102EF00010B90120BDE8F081454A136803F00F03C3
:102F00008B4228D321688F0730D4C80743D4404A66
:102F1000136803F00F03AB4266D8226851076FD4E1
:102F2000130707D53B4A2169936823F4604343EABA
:102F3000C1039360FFF7AAFF364B374A9B68C3F380
:102F40000313D35CD840354B1860354B1868FEF737
:102F50002BFD0020CEE7136823F00F030B43136013
:102F6000136803F00F038B42C3D1CBE711F0040FBA
:102F7000284B03D09A6842F4E0529A600E0703D5BA
:102F80009A6842F460429A609A68A06822F0F0025F
:102F900002439A60B9E761681E4B01291A681BD188
:102FA00012F4003FA5D09A6841F28838194E22F0F9
:102FB00003020A439A60FEF7E3FF0746B3686268BC
:102FC00003F00C03B3EB820FA1D0FEF7D9FFC01BB7
:102FD0004045F3D903208DE7022902D112F0007F8A
:102FE000E0E712F0020FDDE7136823F00F032B4335
:102FF0001360136803F00F03AB427FF47AAF8CE7E2
:103000000449E0688B6823F4E05303438B6087E74F
:10301000003C0240003802409A6A0008000000208C
:1030200008000020044B054A9B68C3F38223D35C4D
:10303000034A1068D840704700380240AA6A000866
:1030400000000020044B054A9B68C3F34233D35C65
:10305000034A1068D840704700380240AA6A000846
:10306000000000200F2303600B4B9A6802F003025C
:1030700042609A6802F0F00282609A6802F4E052BC
:10308000C2609B68DB0803F4E0530361034B1B68D9
:1030900003F00F030B60704700380240003C024011
:1030A0002DE9F7430268044612F001060BD0B94B34
:1030B000996821F400019960C66A99683143B6FAAB
:1030C00086F67609996012F4002512D0B149656B35
:1030D000D1F88C30B5F5801F23F4401308BF0126CA
:1030E00043EA050316BFB5FA85F500256D09C1F859
:1030F0008C30D70210D5A748A16BD0F88C30B1F531
:10310000800F23F4400343EA0103C0F88C3000F041
:103110004B81002908BF0125900631D59D4B9E4F5C
:103120001A6C42F080521A641B6C03F080530193B6
:10313000019B3B6843F480733B60FEF721FF8046B0
:103140003B68D90540F13281924F3B6F13F44073D5
:1031500040F03781A36A03F44072B2F5407F8D4A94
:1031600040F05581916823F0704021F4F81120F46B
:10317000407001439160C3F30B03116F0B4313675E
:103180002368DF060CD5834AD2F88C1021F08071B9
:10319000C2F88C10D2F88C10206B0143C2F88C104E
:1031A000580408D57B49E06DD1F8902022F44032D4
:1031B0000243C1F89020190408D57649206ED1F851
:1031C000902022F440220243C1F89020DA0308D56F
:1031D0007049606ED1F8902022F440120243C1F889
:1031E00090205F0608D56B49E06BD1F8902022F063
:1031F00003020243C1F89020180608D56549206CE7
:10320000D1F8902022F00C020243C1F89020D90599
:1032100008D56049606CD1F8902022F0300202435A
:10322000C1F890209A0508D55A49A06CD1F8902091
:1032300022F0C0020243C1F890205F0508D555492D
:10324000E06CD1F8902022F440720243C1F8902043
:10325000180508D54F49206DD1F8902022F440621E
:103260000243C1F89020D90408D54A49606DD1F8CD
:10327000902022F440520243C1F890209A0408D5CD
:103280004449A06DD1F8902022F440420243C1F895
:1032900090209F020CD53F48616FD0F89020B1F18B
:1032A000006F22F0006208BF01250A43C0F8902099
:1032B000580308D53749E06ED1F8902022F04072CB
:1032C0000243C1F89020190208D53249A06FD1F805
:1032D000902022F080520243C1F890205A0108D574
:1032E0002C49E06FD1F8902022F000520243C1F83F
:1032F0009020002E40F08F80B3F1007F00F08B8093
:10330000012D4FD1234D2B6823F080532B60FEF706
:1033100037FE06462B689F0000F1E0802068050319
:1033200001D5636B1BB1C10218D5A36BB3B91949A1
:10333000D4E90453D1F888201B0602F4403243EA52
:1033400085131343C1F88830D1F88C30226A23F4F6
:10335000F853013A43EA0223C1F88C30820210D5B7
:10336000636FB3F1006F0CD10A49A369D1F88820CB
:1033700020691B0402F0706243EA80131343C1F812
:103380008830044C236843F080532360FEF7F8FD37
:10339000054603E0003802400070004023689B00AF
:1033A00040F1A380002009E00126B5E6FEF7E8FD24
:1033B000A0EB080064287FF6C3AE032003B0BDE88D
:1033C000F083A26A02F4407293423FF4C3AE3B6FB3
:1033D0003A6F23F4407342F480323A673A6F22F432
:1033E00080323A673B673B6FDA077FF5B3AEFEF793
:1033F000C7FD41F2883980463B6F9B073FF5AAAE77
:10340000FEF7BEFDA0EB08004845F5D9D5E7916869
:1034100021F4F811AEE6384E336823F08063336050
:10342000FEF7AEFD074633681B0151D42268D7076B
:103430000DD5E36A5BB9D6F88410D4E9010301F035
:1034400070611B0743EA80130B43C6F884301003F6
:1034500003D5636BB3F5801F05D0D10219D5A36BDB
:10346000B3F5800F15D12449E368D1F8840066686C
:103470001B0600F0E04043EA86130343C1F88430A2
:10348000D1F88C00E36920F01F00013B0343C1F831
:103490008C3092010AD5E36862681B0643EA821306
:1034A000A26843EA0273144AC2F88430124E3368A9
:1034B00043F080633360FEF763FD074633681B010A
:1034C0003FF51EAFFEF75CFDC01B6428F6D974E71C
:1034D000FEF756FDC01B6428A5D96EE7FEF750FD28
:1034E000801B64287FF616AF67E7FEF749FD401B97
:1034F00064287FF653AF60E700380240026838B5B1
:10350000D368044623F0A003D360FEF739FD0546D7
:103510002368DB689B0601D5002038BDFEF730FD2F
:10352000401BB0F57A7FF3D90320F6E738B503687E
:103530000446DA68520601D5002038BD4FF0FF324C
:10354000DA60FEF71DFD05462368DB685B06F3D4F1
:10355000FEF716FD401BB0F57A7FF5D90320ECE7A6
:1035600038B50446B0B1437F03F0FF0213B90277C8
:10357000FEF766F90223CA222046637723685A625F
:1035800053225A62FFF7D2FF236828B1FF225A6202
:1035900004236377012024E09A68256922F4E0027D
:1035A00022F040029A60626899682A4365692A435A
:1035B0000A43A1689A60E2681A611A6942EA014204
:1035C000A1691A61DA6822F08002DA60DA6C22F00E
:1035D0000802DA64DA6C0A43DA64FF225A620123D1
:1035E000637738BD0023092803D840EA0310C0B22E
:1035F00070470A380133C0B2F5E7037F012B2DE98C
:10360000F04106460F464FF002052ED00123016817
:10361000457703778B6838787D78BC7842BB13F0A8
:10362000400308BF3B73FFF7DDFF80462846FFF7E6
:10363000D9FF02462046FFF7D5FF3B7B40EA034017
:1036400040EA084040EA0224CA2330464B62532332
:103650004B62FFF76BFF33680546A8B1FF225A6241
:10366000042373770023337701252846BDE8F081D2
:103670002D0213F0400345EA004008BF3B7320438E
:103680003C7B40EA0444DFE704F07F3424F0FE444E
:103690001C609A6822F480229A609968D7E9042015
:1036A00002430A439A60DA6822F08002DA609B687B
:1036B0009B060AD43046FFF721FF30B13368FF2262
:1036C0005A62042335777377CEE73368FF225A6254
:1036D0000123737700233377C7E7F8B5037F0646E6
:1036E0000225012B30D00123457703770D78C87868
:1036F0004C786D038F78002A47D1E20603D524F079
:1037000010040A344C70FFF76DFF02464878FFF74B
:1037100069FF04463846FFF765FF284340EA024048
:103720003368CA2240EA042430465A6253225A625D
:10373000FFF7FCFE3368054640B1FF225A620423BE
:1037400073770023337701252846F8BD24F07F44A2
:1037500024F0C0045C60DA6822F08002DA609B68C2
:103760009B060AD43046FFF7C9FE30B13368FF220A
:103770005A62042335777377E5E73368FF225A628C
:103780000123737700233377DEE745EA00403843AF
:10379000C6E7030900F00F0003EB830300EB4300CF
:1037A000C0B270470368986A486018691B68C0F324
:1037B0000E0003F07F33886023F0FE4370B51D0CCC
:1037C000C3F30626DCB205F03F0005F040054E705D
:1037D00008708C700D7352B9FFF7DBFF087030462C
:1037E000FFF7D7FF48702046FFF7D3FF887000200F
:1037F00070BD38B503685B6823F07F4323F0C003D6
:10380000180CC3F30425DCB2C3F34233C8704D7007
:103810008C700B7052B9FFF7BCFFC8702846FFF7D9
:10382000B8FF48702046FFF7B4FF8870002038BD0D
:1038300003685A6822F0E0025A604268B2F5827F5B
:103840000AD18268B2F5004F02D0B2F5806F03D181
:103850001A6822F040021A60826AB2F5005F07D14E
:103860001A6822F400521A601A6842F400521A6070
:10387000012380F85D30002380F85C30032070471E
:1038800070B504460D4616462368986810F080000F
:1038900000D170BD6A1CF8D0FEF772FB801B854218
:1038A000F2D82046BDE87040FFF7C2BFF8B5054624
:1038B0000C4616461F4629688868204000D1F8BD8E
:1038C000B4F5C06F00D10B7B731CF5D0FEF758FB2D
:1038D000C01B8642EFD82846BDE8F840FFF7A8BFD6
:1038E000F8B5436804460E461746B3F5827F0BD100
:1038F0008368B3F5004F02D0B3F5806F04D123681D
:103900001A6822F040021A603A4631462046FFF714
:10391000B7FF054628B1236E032543F02003236635
:1039200013E06368B3F5827F0FD1A368B3F5004F4E
:1039300002D0B3F5806F08D13B4632464FF4C061E8
:103940002046FFF7B3FF0028E5D12846F8BD70B543
:1039500013460D4616460A464FF4C0510446FFF77B
:10396000A5FF28B1236E032043F0200323660FE058
:10397000324629462046FFF783FF0028F2D133461E
:103980002A464FF4C0612046FFF790FF0028E9D196
:1039900070BD70B5044600284AD00023836290F8B9
:1039A0005D3003F0FF021BB980F85C20FDF756FF85
:1039B00002232268E56884F85D301368B5F5E06F8E
:1039C00023F0400313604FF0000333D84FF48051CD
:1039D00000D0A362236B2BB9B5F5E06F8CBF022337
:1039E00001232363A069D4E90136334326693343B5
:1039F00066693343E6693343266A3343A66A334331
:103A000000F40076000C334300F004001360636A96
:103A10002B43656B2B43034300200B435360D36957
:103A200023F40063D3610123206684F85D3070BD08
:103A30000120FCE71946B5F5706FC9E72DE9F341A0
:103A40001E4690F85C3004460D46012B904600F06F
:103A5000AE80012380F85C30FEF792FA074694F8B6
:103A60005D00C0B2012840F0A080002D5ED0B8F10A
:103A7000000F5BD003230020A56384F85D30A368AA
:103A80002066B3F5004FA4F83E802064A4F84400FB
:103A9000A4F84600A4F83C80C4E91300206803D1D0
:103AA000036843F48043036003685B0603D4036840
:103AB00043F040030360E2686368B2F5E06F3ED90B
:103AC00013B1B8F1010F07D135F8023BC360A5630C
:103AD000E38F013B9BB2E387E38F9BB2A3B93A46E6
:103AE00031462046FFF733FF00285BD1A36833B986
:103AF00001932368DA6801929B680193019B206E11
:103B0000003018BF012011E022689368980705D59E
:103B1000A36B33F8021BD160A363D9E7FEF730FA39
:103B2000C01BB042D8D3711CD6D00320012384F827
:103B30005D30002384F85C3002B0BDE8F08113B141
:103B4000B8F1010F12D1E38F012B06D935F8023BF2
:103B5000C360A563E38F023B06E02B780373A36B7E
:103B60000133A363E38F013B9BB2E387E38F9BB2F7
:103B7000002BB4D023689A6892070BD5E28FA06B14
:103B8000012A04D930F8022BDA60A063E2E7027858
:103B90001A73E4E7FEF7F4F9C01BB042E6D3731CD6
:103BA000E4D0C2E720232366A0E70220BEE702207C
:103BB000C2E72DE9F8431E4690F85C3004460D46F6
:103BC000012B9146089F00F01181012380F85C30A1
:103BD000FEF7D6F994F85D3080466168DBB2012BC0
:103BE0000AD0B1F5827F40F0FF80A068002840F045
:103BF000FB80042B40F0F880002D49D0B9F1000F74
:103C000046D0002E44D094F85D30042B02D005231A
:103C100084F85D30E26800232068B2F5E06F236627
:103C2000C4F84090A4F84660A4F84460E687A56311
:103C3000A687C4E91333436801D8012E2AD923F497
:103C40008053436003685B0603D4036843F040037A
:103C50000360B2F5E06F56D909B1012E07D135F8EE
:103C6000023BC360E38FA563013B9BB2E387012561
:103C7000E38F9BB28BB9B4F846309BB26BB9424626
:103C800039462046FFF763FE002834D02023236600
:103C9000012030E043F48053D3E72268936899070A
:103CA0000DD5E38F9BB253B14DB1A36B002533F813
:103CB000021BD160A363E38F013B9BB2E387936850
:103CC000DB070FD5B4F846309BB25BB1D268012553
:103CD000236C23F8022B2364B4F84630013B9BB2DB
:103CE000A4F84630FEF74CF9A0EB08008742BFD895
:103CF0007E1CBDD00320012384F85D30002384F8AE
:103D00005C30BDE8F88309B1012E0AD1E38F012BA5
:103D10004ED935F8023BC360E38FA563023B9BB2EB
:103D2000E3870125E38F9BB223B9B4F846309BB2F9
:103D3000002BA4D022689368980710D5E38F9BB21C
:103D40006BB165B1E18FA36B012939D933F8021B3F
:103D5000D160A363E38F023B9BB20025E387226817
:103D60009368D9071BD5B4F846309BB2BBB1B4F801
:103D70004610236C01292BD9D16823F8021B236438
:103D8000B4F84630023B9BB2A4F84630B4F8463053
:103D9000012B03D8536843F4805353600125FEF789
:103DA000EFF8A0EB08008742BCD87B1CBAD0A1E793
:103DB0002B780373A36B0133A363E38F013BAEE75F
:103DC0001B781373A36B0133A363E38F013BC3E73A
:103DD000127B1A70236C01332364B4F84630013B24
:103DE0009BB2A4F84630D9E7022084E7022088E796
:103DF0002DE9F3411D46436804468846B3F5827FAA
:103E000017460CD1836853B9042380F85D301346FC
:103E100000950A46FFF7CDFE02B0BDE8F08194F8A8
:103E20005C30012B00F08D80012384F85C30FEF7BC
:103E3000A7F8064694F85D00C0B201287FD1B8F11A
:103E4000000F6AD0002F68D00423E268216884F84C
:103E50005D300023B2F5E06FC4F840802366A363B1
:103E6000A4F84670A387E387A4F84470C4E9133329
:103E70004B688CBF23F4805343F480534B60A3689A
:103E8000B3F5004F03D10B6823F480430B600B683C
:103E90005F0603D40B6843F040030B60B2F5E06F9C
:103EA00023D9B4F846309BB223B323689A68D2076B
:103EB0003AD5DA68236C23F8022B2364B4F8463031
:103EC000013B9BB2A4F84630EBE723689A68D00721
:103ED0001BD51B7B226C1370236C01332364B4F855
:103EE0004630013B9BB2A4F84630B4F846309BB252
:103EF000002BEAD1324629462046FFF7F1FCD8B91B
:103F0000206E003018BF012007E0FEF739F8801B53
:103F1000A842EAD3691CE8D00320012384F85D306D
:103F2000002384F85C3077E7FEF72AF8801BA8426C
:103F3000B7D36B1CB5D0EFE720232366E0E7022060
:103F4000EBE7022068E70000036A23F0010370B585
:103F50000362036A4268846923F002030D6824F453
:103F6000803424F073042C438D682B430E4DA842FB
:103F700002D00E4EB04211D123F00803CE68A84201
:103F800043EA060323F0040302D0084DA84205D1FA
:103F900022F44072D1E9055635432A4342604A680B
:103FA00084614263036270BD00000140000401406F
:103FB000036A23F4807370B50362036A4268C469BC
:103FC00023F400730D6824F4803424F073042C432C
:103FD0008D6843EA0523114DA84203D005F580659D
:103FE000A84214D1CD6823F4006343EA05230B4DA6
:103FF000A84223F4806303D005F58065A84206D16A
:1040000022F44052D1E90556354342EA0512426096
:104010004A68C461C263036270BD00BF0000014012
:10402000036A23F4805330B50362026A4468C369AB
:1040300022F400520D6823F0807323F4E64343EA30
:1040400005238D6842EA0532084DA84203D005F5E4
:104050008065A84204D124F480444D6944EA851463
:104060004460C3614B680364026230BD00000140DC
:10407000036A23F4803330B50362026A4468436DF7
:1040800022F400320D6823F4803323F070032B43B5
:104090008D6842EA0542094DA84203D005F58065C6
:1040A000A84204D124F480344D6944EA05244460D4
:1040B00043654B688365026230BD00BF000001406C
:1040C000036A23F4801330B50362026A4468436DC7
:1040D00022F400120D6823F0807323F4E04343EAD6
:1040E00005238D6842EA0552084DA84203D005F524
:1040F0008065A84204D124F480244D6944EA8524D3
:10410000446043654B68C365026230BD00000140F6
:10411000704700000368DA6842F00102DA60074A7B
:1041200099680A40062A06D0B2F5803F03D01A6883
:1041300042F001021A600020704700BF0700010032
:10414000704770477047704703681A69910710B548
:1041500004460FD5DA6892070CD56FF002021A6197
:1041600001229B690277990700F08580FFF7E9FF3C
:104170000023237723681A69520710D5DA6850079D
:104180000DD56FF0040220461A6102229B69227746
:1041900013F4407F75D0FFF7D4FF00232377236803
:1041A0001A6911070FD5DA6812070CD56FF00802EB
:1041B00020461A610422DB6922779B0767D0FFF74C
:1041C000C0FF0023237723681A69D00610D5DA6868
:1041D000D1060DD56FF0100220461A610822DB6966
:1041E000227713F4407F58D0FFF7ABFF00232377EB
:1041F00023681A69D20708D5DA68D00705D56FF0A9
:10420000010220461A61FDF781F823681A69110638
:1042100008D5DA68120605D56FF0800220461A61CB
:1042200000F0E9F923681A69D00508D5DA681106A3
:1042300005D56FF4807220461A6100F0DDF923681D
:104240001A69520608D5DA68500605D56FF04002A3
:1042500020461A61FFF777FF23681A69910622D575
:10426000DA6892061FD56FF0200220461A61BDE879
:10427000104000F0BFB9FFF763FF2046FFF762FF71
:1042800076E7FFF75DFF2046FFF75CFF85E7FFF766
:1042900057FF2046FFF756FF93E7FFF751FF2046F1
:1042A000FFF750FFA2E710BD304A0368904212D0DA
:1042B000B0F1804F0FD0A2F57C4290420BD002F5B6
:1042C0008062904207D002F58062904203D002F5EE
:1042D0007842904219D14A6823F070031343234A6D
:1042E000904229D0B0F1804F26D0A2F57C42904276
:1042F00022D002F5806290421ED002F58062904288
:104300001AD002F57842904216D0194A904213D042
:1043100002F5806290420FD002F5806290420BD08D
:10432000A2F59832904207D002F58062904203D005
:1043300002F58062904203D123F44073CA681343AC
:104340004A6923F08003134303608B68C3620B68E0
:104350008362064B984203D003F58063984201D1F3
:104360000B69036301234361704700BF00000140F4
:104370000040014010B50446A0B190F83D3003F074
:10438000FF021BB980F83C20FFF7C2FE0223206821
:10439000211D84F83D30FFF787FF0123002084F8BA
:1043A0003D3010BD0120FCE710B50446A0B190F8E7
:1043B0003D3003F0FF021BB980F83C20FDF780FA86
:1043C00002232068211D84F83D30FFF76DFF012393
:1043D000002084F83D3010BD0120FCE7036A23F083
:1043E000100370B50362036A4268846923F02003F6
:1043F0000D6824F0807424F4E64444EA05248D68B2
:1044000043EA0513104DA84203D005F58065A84284
:1044100014D1CD6823F0800343EA05130A4DA84266
:1044200023F0400303D005F58065A84206D122F4AD
:104430004062D1E90556354342EA850242604A6846
:1044400084618263036270BD0000014038B590F85A
:104450003C3004460220012B10D00123082A84F8A6
:104460003D0084F83C3043D009D8FAB1042A2ED05C
:104470000123002084F83D3084F83C0038BD102A28
:1044800047D0142A56D00C2AF2D12068FFF7C8FD75
:1044900023680969DA6942F40062DA61DA6922F4B0
:1044A0008062DA61DA6942EA012230E02068FFF7CF
:1044B0004BFD236809699A6942F008029A619A697A
:1044C00022F004029A619A690A439A61D0E720684F
:1044D000FFF784FF236809699A6942F400629A61D0
:1044E0009A6922F480629A619A6942EA0122ECE7B1
:1044F0002068FFF75DFD23680969DA6942F0080268
:10450000DA61DA6922F00402DA61DA690A43DA610F
:10451000AEE72068FFF7ACFD236809695A6D42F0E9
:1045200008025A655A6D22F004025A655A6D0A4310
:104530005A659DE72068FFF7C3FD236809695A6D36
:1045400042F400625A655A6D22F480625A655A6DCF
:1045500042EA0122ECE7000090F83C30012B4FF0DA
:10456000020370B53ED080F83D30012203681E4D35
:1045700080F83C20AB425A689C6802D01B4EB34284
:1045800003D122F470024E6832430E6822F07002AA
:10459000AB4242EA06025A6019D0B3F1804F16D0FE
:1045A000134A934213D002F5806293420FD002F572
:1045B000806293420BD002F57842934207D002F515
:1045C0007052934203D0A2F59432934204D1896889
:1045D00024F080020A439A60012380F83D300023D2
:1045E00080F83C30184670BD0000014000040140D6
:1045F0000004004070477047704703681A6822F44F
:1046000090721A609A6822F001029A6020238367F0
:104610000023036670470000836F202B49D10029D7
:1046200045D0002A43D090F87030012B41D00123AF
:10463000A0F85820A0F85A20002280F87030836833
:104640004165B3F5805F026621D10269EAB940F2A3
:10465000FF12A0F85C200022B3F5805FC2674FF024
:10466000220282670268916841F0010191601CD1C9
:104670000369D3B9104B11680366002341F49071AC
:1046800080F87030184611607047FF22E1E723B9C7
:104690000269002AF9D07F22DBE7B3F1805FD8D12D
:1046A0000269002AF7D03F22D3E7044BE3E7012059
:1046B00070470220704700BF1B470008C346000830
:1046C0007047816F0268222910B521D1526A90F893
:1046D0005C40416D22400A70426D01324265B0F883
:1046E0005A20013A92B2A0F85A20B0F85A2092B259
:1046F0006AB901680C6824F490740C608C6824F02A
:1047000001048C60202102668167FDF7ADFB10BDBE
:10471000936943F008039361F9E7816F02682229E6
:1047200010B51FD1546AB0F85C100C40416D21F8EF
:10473000024B4165B0F85A10013989B2A0F85A10FD
:10474000B0F85A1089B261B9146824F490741460F6
:10475000946824F001049460202201668267FDF7CA
:1047600083FB10BD936943F008039361F9E7704739
:10477000036870B5DA6940F60F06196804463242DC
:104780009D6809D196066ED58D066CD5036E002BFB
:1047900064D0BDE87040184715F0010002D111F453
:1047A000907F60D0D60707D5CD0505D501251D62C0
:1047B000E56F45F00105E567960706D528B10225A6
:1047C0001D62E56F45F00405E567550706D528B17C
:1047D00004251D62E56F45F00205E567160708D55B
:1047E0008D0600D428B108201862E06F40F0080060
:1047F000E067100508D54E0106D54FF40060186239
:10480000E36F43F02003E367E36F3BB3950605D501
:10481000880603D5236E0BB12046984722682046B0
:10482000E56F9268510602D415F0280517D0FFF7FE
:10483000E4FE23689A6852060DD59A68E06E22F06D
:1048400040029A6038B1144B0365FDF74DFD28B165
:10485000E06E036D9DE72046FFF789FF70BDFFF70F
:1048600086FFE567FAE7160606D50D0604D5636EE2
:10487000002BF3D020468CE75006EFD54A06EDD545
:104880001A68204622F040021A6020236367002342
:104890006366FFF715FFE1E79D48000808B5806BE8
:1048A0000023A0F85A30A0F85230FFF760FF08BD8F
:1048B00038B5C26904460368816800691D68014310
:1048C000606901439A4811432840256A0143E06822
:1048D0001960596821F4405101435960A1699868F1
:1048E000294320F430600143996092498B4218D1EA
:1048F000914B9249D3F8903003F00303CB5CB2F5AF
:10490000004F40F0BD80082B00F2AF80DFE813F0CD
:104910009500AA00F900AD000501AD00AD00AD00A5
:104920000B0187498B4206D1834B8649D3F89030DF
:1049300003F00C03E2E784498B4218D17E4BD3F895
:10494000903003F03003102B00F0E48002D8002BED
:10495000D5D005E0202B00F0D180302B00F0E08096
:10496000B2F5004F00F0818001200023A9E07749D3
:104970008B420DD1704BD3F8903003F0C003402B25
:1049800000F0C880E3D9802B00F0B880C02BE5E7A9
:104990006F498B4210D1684BD3F8903003F44073C9
:1049A000B3F5807F00F0B680D1D9B3F5007F00F079
:1049B000A580B3F5407FD1E766498B4214D15E4BA9
:1049C000D3F8903003F44063B3F5806F00F0A28019
:1049D00003D8002BC4D1012391E7B3F5006F00F099
:1049E0008D80B3F5406FB9E75B498B4213D1524BD1
:1049F000D3F8903003F44053B3F5805F00F08A8021
:104A000003D8002BACD1002379E7B3F5005F75D054
:104A1000B3F5405FA2E751498B42A1D1464BD3F891
:104A2000903003F44043B3F5804F73D08FD9B3F582
:104A3000004F63D0B3F5404F90E7FEF7F3FA61689B
:104A40004A0802EB4003B3FBF1F39BB20020A3F151
:104A500010014FF6EF7291420AD901200023C4E9F8
:104A6000183338BDFEF7EEFAE9E701200023EEE740
:104A700023F00F02C3F3420321681343CB60EDE739
:104A8000082B3FF671AF01A252F823F0B14A00089B
:104A9000D54A0008DB4A000869490008ED4A0008C9
:104AA000694900086949000869490008F34A000893
:104AB000FEF7B8FA626800EB5203B3FBF2F39BB265
:104AC0000020A3F110014FF6EF729142C5D8226881
:104AD000D360C3E7FEF7B6FAECE76068430803F576
:104AE000740303F51053B3FBF0F3E8E7FEF7CEF9D8
:104AF000E0E76068430803F50043F4E7B2F5004FD0
:104B0000EBD16068430803F1F47303F59043B3FB02
:104B1000F0F39AE7B2F5004FE8D1FEF7B7F98EE768
:104B2000B2F5004FE5D16068430803F58033EEE746
:104B3000F369FFEF0010014000380240B26A00083C
:104B400000440040B66A000800480040004C0040A5
:104B5000005000400014014000780040007C0040FC
:104B6000436ADA0710B506D50168846A4A6822F4F8
:104B7000003222434A609C0706D50168C46A4A682D
:104B800022F4803222434A60590706D50168046B3B
:104B90004A6822F4802222434A601A0706D5016837
:104BA000446B4A6822F4004222434A60DC0606D580
:104BB0000168846B8A6822F4805222438A609906D5
:104BC00006D50168C46B8A6822F4005222438A60C9
:104BD0005A0610D50168046C4A68B4F5801F22F4A7
:104BE000801242EA04024A6005D14A68446C22F409
:104BF000C00222434A601B0606D50268816C5368D6
:104C000023F400230B43536010BD2DE9F041069DB2
:104C100004460F46164698462168CA6937EA0203D9
:104C20000CBF01220022B24201D0002018E0681C13
:104C3000F3D0FDF7A5F9A0EB0800A84220680368AF
:104C400000D87DB923F4D0730360836823F0010397
:104C5000836020236367A3670023032084F87030F8
:104C6000BDE8F0815A07D7D5C3691B05D4D54FF4E9
:104C700000630362036823F4D0730360836823F046
:104C80000103836020236367A367E367E4E72DE9FB
:104C9000F7439846436F04460E46202B91464CD16D
:104CA000002948D0002A46D090F87030012B44D01B
:104CB0000123002580F870302123C5674367FDF785
:104CC0005FF9A3680746A4F85090B3F5805FA4F895
:104CD000529003D123690BB935461E46002384F850
:104CE0007030B4F852203B46CDF8008092B23AB909
:104CF00040212046FFF789FF40B92023636706E083
:104D0000002280212046FFF780FF18B1032003B066
:104D1000BDE8F08322685EB935F8023BC3F30803AF
:104D20009362B4F85230013B9BB2A4F85230D8E7FA
:104D300016F8013BF4E70120E9E70220E7E72DE957
:104D4000F7439946836F04460D46202B164664D1DF
:104D5000002960D0002A5ED090F87030012B5CD022
:104D60000123002780F870302223C7678367FDF78F
:104D700007F9A3688046A4F85860B3F5805FA4F8EB
:104D80005A601CD12269C2B940F2FF12A4F85C201B
:104D9000B3F5805FB4F85C7022D1236903BB2E4663
:104DA0001D46002384F87030B4F85A0080B2C8B9A8
:104DB0002023A36703B0BDE8F083FF22E6E723B911
:104DC0002269002AF9D07F22E0E7B3F1805F04D1A5
:104DD0002269002AF7D03F22D8E7A4F85C70D7E711
:104DE0000026DEE7CDF80090434600222021204631
:104DF000FFF70BFF98B923685B6A3B4045B926F87B
:104E0000023BB4F85A30013B9BB2A4F85A30CBE7CE
:104E100005F8013BF5E70120CCE70220CAE70320B3
:104E2000C8E737B500250446C567FDF7A9F822682D
:104E300003461268120707D420230020636784F812
:104E40007000A36703B030BD6FF07E424FF40011D5
:104E5000204600922A46FFF7D8FE0028ECD0032017
:104E6000F0E710B5044640B3436F1BB980F87030CB
:104E7000FCF75EFD2268242320466367136823F055
:104E800001031360FFF714FD012816D0636A13B104
:104E90002046FFF765FE236820465A6822F49042B8
:104EA0005A609A6822F02A029A601A6842F0010257
:104EB000BDE810401A60FFF7B4BF012010BD00002C
:104EC000EFF3058313B16FF005007047EFF3108225
:104ED000074B12B9EFF3118212B11A68022AF2D00D
:104EE000186810B901221A6070474FF0FF30704700
:104EF000A001002008B5EFF3058313B16FF00500A2
:104F000008BDEFF310820A4B12B9EFF3118212B110
:104F10001A68022AF2D01A68012A05D102221A6000
:104F200000F0CAFD0020EBE74FF0FF30E8E700BFDC
:104F3000A0010020F0B5144687B000220B46059270
:104F4000EFF3058232BBEFF3108212B9EFF3118257
:104F50001AB1224A1268022A1CD0D8B1002C36D0CD
:104F6000A5692168002D08BF18256A1E2F46372A1B
:104F700031D86268D2072ED4666976B1B208D4E916
:104F800002CEBCF1000F0AD0BEF15B0F02D924693A
:104F900004B1AEB9059807B0F0BD4022EFE7BEF10D
:104FA000000FF7D12469002CF4D105AC92B2CDE901
:104FB000007400F053FD01281CBF00230593E9E7AE
:104FC000CDE9014C009500F00BFD0590E2E71827B4
:104FD00040222146E9E70020DDE700BFA0010020D4
:104FE00008B5EFF3058313B16FF0050008BDEFF3CB
:104FF000108313B9EFF311831BB1054B1B68022B10
:10500000F2D00028F2D000F0B5FE0020EEE700BF9D
:10501000A0010020034B0360034B0B60402313608F
:10502000704700BF4401002044000020034B036090
:10503000034B0B6080231360704700BFA403002064
:10504000A401002000F108034FF0FF324360036128
:10505000C0E9022300230360704700230361704707
:1050600043689A684B608A609A68516099600368E7
:1050700008610133036070470A68531C30B50AD1D8
:1050800003695A684A6091608B60596003680861DF
:105090000133036030BD00F108035C682568954268
:1050A000EFD82346F9E7D0E9011203698A608268E4
:1050B00051605968814208BF5A60002202611A6833
:1050C000013A1A601868704710B5044601F052FAA8
:1050D000A46B01F075FAB4FA84F0400910BD70B504
:1050E0001546026C0446866B42B905689DB9806816
:1050F00000F086FFA5600136A66370BD6DB94068FB
:1051000001F086FC6368226C1344A26893426360DA
:1051100001D3236863600020EDE7C06801F078FCEC
:10512000236CE2685B4221681A448A42E2603EBF17
:10513000A2689B18E360022DEDD10EB1013EEAE7B3
:105140003046D8E7034608461A6C10B462B1D968F5
:105150009C681144A142D9605DF8044B24BF1968D2
:10516000D960D96801F054BC5DF8044B704770B544
:10517000044601F0FFF994F8455004F124066DB29D
:10518000002D14DCFF2304F1100684F8453001F0F3
:1051900017FA01F0EFF994F844506DB2002D12DCCB
:1051A000FF2384F84430BDE8704001F009BA636A17
:1051B000002BE7D0304600F07DFE08B100F00AFF7A
:1051C000013D6DB2DCE72369002BE9D0304600F0E9
:1051D00071FE08B100F0FEFE013D6DB2DEE7000099
:1051E00038B50D46044650B94FF0500372B683F3FC
:1051F0001188BFF36F8FBFF34F8F62B6FEE701F0E8
:10520000B9F92268D4E90F3062604343D1181B1A00
:105210001344A1600021E360FF23A16384F84430BC
:1052200084F8453095B9236963B104F1100000F0AA
:1052300041FE38B10A4B4FF080521A60BFF34F8FD6
:10524000BFF36F8F01F0BCF9012038BD04F11000ED
:10525000FFF7F8FE04F12400FFF7F4FEF2E700BFC9
:1052600004ED00E013B51C4650B94FF0500372B680
:1052700083F31188BFF36F8FBFF34F8F62B6FEE7E2
:1052800053B94FF0500372B683F31188BFF36F8F99
:10529000BFF34F8F62B6FEE75AB1B1B94FF050037A
:1052A00072B683F31188BFF36F8FBFF34F8F62B66F
:1052B000FEE751B14FF0500372B683F31188BFF38C
:1052C0006F8FBFF34F8F62B6FEE750230193019BB0
:1052D000502B0AD04FF0500372B683F31188BFF3FE
:1052E0006F8FBFF34F8F62B6FEE7002908BF2246DB
:1052F000019B0123226084F84630C4E90F0119465E
:105300002046FFF76DFF9DF81030204684F84C30A2
:1053100002B010BD2DE9FF47884601921F460446A2
:1053200050B94FF0500372B683F31188BFF36F8FFB
:10533000BFF34F8F62B6FEE761B9036C53B14FF014
:10534000500372B683F31188BFF36F8FBFF34F8F93
:1053500062B6FEE7022F0DD1E36B012B0AD04FF0AE
:10536000500372B683F31188BFF36F8FBFF34F8F73
:1053700062B6FEE700F034FE60B9019E5EB14FF008
:10538000500372B683F31188BFF36F8FBFF34F8F53
:1053900062B6FEE700264FF00009DFF8E8A037E02C
:1053A000019D1DB901F00CF9002050E016B902A8CA
:1053B00000F0C4FD01F004F900F0C6FB01F0DAF8DA
:1053C00094F84430FF2B01D184F8449094F8453090
:1053D000FF2B01D184F8459001F0F2F801A902A851
:1053E00000F0B8FD002846D101F0C4F8A26BE36BD1
:1053F0009A422FD101F0E4F8019904F1100000F075
:105400001DFD2046FFF7B3FE00F03EFC50B3012621
:1054100001F0B0F8A26BE36B9A4201D3022FBFD127
:105420003A4641462046FFF75AFE636A1BB104F133
:10543000240000F03FFD38B1124B4FF080521A604B
:10544000BFF34F8FBFF36F8F01F0BAF8012004B0A4
:10545000BDE8F08701F0B4F82046FFF788FE00F0C1
:1054600013FCD4E74FF08053CAF80030BFF34F8FDE
:10547000BFF36F8FCBE72046FFF779FE00F004FC07
:1054800092E700BF04ED00E02DE9F843894690461D
:105490001F46044650B94FF0500372B683F311888B
:1054A000BFF36F8FBFF34F8F62B6FEE761B9036C36
:1054B00053B14FF0500372B683F31188BFF36F8F6F
:1054C000BFF34F8F62B6FEE7022F0DD1E36B012BC6
:1054D0000AD04FF0500372B683F31188BFF36F8F79
:1054E000BFF34F8F62B6FEE701F04CF9EFF3118680
:1054F0004FF0500372B683F31188BFF36F8FBFF381
:105500004F8F62B6A26BE36B9A4201D3022F22D176
:1055100094F845503A46494620466DB2FFF7DFFD04
:105520006B1C13D1636A0BB901200BE004F124005A
:1055300000F0C0FC0028F7D0B8F1000FF4D0012033
:10554000C8F8000086F31188BDE8F88301356DB214
:1055500084F84550E8E70020F4E700002DE9F04327
:1055600085B00F460446019250B94FF0500372B611
:1055700083F31188BFF36F8FBFF34F8F62B6FEE7DF
:1055800061B9036C53B14FF0500372B683F31188C5
:10559000BFF36F8FBFF34F8F62B6FEE700F020FDC1
:1055A00060B9019E5EB14FF0500372B683F311886B
:1055B000BFF36F8FBFF34F8F62B6FEE700264FF049
:1055C0000008DFF8E0903BE0019D1DB900F0F8FF16
:1055D000002052E016B902A800F0B0FC00F0F0FF85
:1055E00000F0B2FA00F0C6FF94F84430FF2B01D16E
:1055F00084F8448094F84530FF2B01D184F845802D
:1056000000F0DEFF01A902A800F0A4FC00283DD1B3
:105610002046FFF759FD98B3019904F1240000F0EA
:105620000DFC2046FFF7A3FD00F02EFB38B94FF02C
:105630008053C9F80030BFF34F8FBFF36F8F01263F
:1056400000F098FFA56B002DBED0013D39462046E5
:10565000FFF778FDA563236963B104F1100000F042
:1056600029FC38B10F4B4FF080521A60BFF34F8FB7
:10567000BFF36F8F00F0A4FF012005B0BDE8F083F9
:105680002046FFF774FD00F0FFFAD8E72046FFF749
:105690006EFD00F0F9FA2046FFF716FD0028CED087
:1056A00096E700BF04ED00E00023074A30B552F84A
:1056B000335002EBC3041DB942F83310606030BDB3
:1056C0000133082BF3D1FAE72C4A002070B50446C9
:1056D0000D46164600F04EFF94F84430FF2B02D1E1
:1056E000002384F8443094F84530FF2B02D1002386
:1056F00084F8453000F064FFA36B2BB9324629468D
:1057000004F1240000F0B6FB2046BDE87040FFF72E
:105710002EBD00002DE9F041044600F02BFF2E4B7A
:105720002E4D1A682E4F01321A602E68002E48D175
:105730002C601B68012B1FD14FF0140808FB06706A
:105740000136FFF77FFC382EF8D1DFF8C080254EF8
:105750004046FFF777FC3046FFF774FC2248FFF71E
:1057600071FC2248FFF76EFC2148FFF76BFC214BD0
:10577000C3F80080204B1E60204A13680133136079
:105780001F4A63641168E36A8B4200D913601420D6
:10579000211D00FB0370FFF763FC00F011FF194BA4
:1057A0001B6863B12B68DA6AE36A9A4207D2164B28
:1057B0004FF080521A60BFF34F8FBFF36F8FBDE879
:1057C000F081104B1B68002BD6D12B68DA6AE36A94
:1057D0009A42D1D82C60CFE76C080020000400204A
:1057E0000C04002098080020B4080020E0080020E5
:1057F000CC08002004040020080400207C080020BD
:1058000080080020C808002004ED00E08408002083
:1058100010B590F8593004463BB9006B01F098F888
:105820002046BDE8104001F093B8012BF9D0022BBF
:105830000AD04FF0500372B683F31188BFF36F8F15
:10584000BFF34F8F62B6FEE710BD000080B5DFF8F2
:105850005C80124F124C134D236863B9124B1B68C6
:10586000012BF8D94FF08053C8F80030BFF34F8FA9
:10587000BFF36F8FEEE700F07DFEFB68DE68301D42
:10588000FFF711FC2B68013B2B602368013B236071
:1058900000F096FE3046FFF7BBFFDDE7E008002092
:1058A000700800206C0800200C04002004ED00E0CB
:1058B000064A13681968064B19B94FF0FF321A608F
:1058C00070471268D268D2685268F8E70404002072
:1058D000AC0800202DE9F0474FEA820907460D4643
:1058E000A5214A469846A9F10409DDE90964206B1F
:1058F00001F099F8236B994429F0070995B36B1EC1
:1059000004F134020F3513F8011F02F8011B197856
:1059100009B1AB42F7D1002384F84330089D4FF022
:10592000000A201D372DC4F850A028BF3725E56296
:10593000E564C5F13805FFF790FB04F11800FFF7A7
:105940008CFBC4F854A024614246A56139466462C8
:10595000484684F858A000F0E7FD206006B13460A6
:10596000BDE8F08784F83450D8E70000F8B5164B4E
:105970000546164E0F461C6830680430FFF793FB4F
:105980006B1C334607D137B1316811480431BDE88B
:10599000F840FFF765BB64191A68546007D30D4AD5
:1059A00010681968BDE8F8400431FFF765BB0A4A82
:1059B000106819680431FFF75FFB084B1A68A242B0
:1059C00000D91C60F8BD00BFF408002000040020CE
:1059D000CC0800200804002004040020AC080020AB
:1059E00070B586B0DDE90B5455B94FF0500372B66F
:1059F00083F31188BFF36F8FBFF34F8F62B6FEE75B
:105A000054B94FF0500372B683F31188BFF36F8F10
:105A1000BFF34F8F62B6FEE75C260596059E5C2EAF
:105A20000AD04FF0500372B683F31188BFF36F8F23
:105A3000BFF34F8F62B6FEE725630225059E84F80B
:105A4000595004AD029401950A9D0095FFF742FF5D
:105A50002046FFF75FFE049806B070BD2DE9F043C5
:105A6000074685B0900088461646994600F0E0FE4D
:105A70000546E8B15C2000F0DBFE0446A8B1002337
:105A800005633246414680F859300D9B02903846F6
:105A900001930C9B00934B46FFF71CFF2046FFF73A
:105AA00039FE012005B0BDE8F083284600F050FF24
:105AB0004FF0FF30F6E7000010B588B0002407AAC9
:105AC00006A905A8CDE90544FFF7A4FA059B079AA6
:105AD0000293069B17491848CDE900432346FFF778
